S01500004449474954414C20434C4F434B2E7372656385
S11300000C942A000C943F000C943F000C943F0085
S11300100C943F000C943F000C943F000C943F0060
S11300200C943F000C943F000C943F000C943F0050
S11300300C943F000C943F000C943F000C943F0040
S11300400C943F000C943F000C943F000C943F0030
S11300500C943F0011241FBECFE5D4E0DEBFCDBF1A
S113006010E0A0E6B0E0E0E5F1E002C005900D92FA
S1130070AA36B107D9F70E9441000C94A6000C944B
S11300800000CF93DF93CDB7DEB72A970FB6F8946D
S1130090DEBF0FBECDBF8AE0E0E6F0E0DE011196E0
S11300A001900D928A95E1F78FEF81BB84BB87BBEA
S11300B08ABB10E0BE016F5F7F4F2B01AE01455F2D
S11300C05F4F7B0106E0E00EF11C862E952CA42CDC
S11300D0B52C712C35C0D901DC90DBBADC01DC9085
S11300E0D8BAD101DC90D5BAD190D2BABFE30DE031
S11300F0A3E0B1500040A040E1F700C0000012307E
S113010019F4B4E0CB16C9F0E417F50721F7EFEFC3
S11301102E1A3E0A2E143F0419F0EA2DFB2DDBCFD4
S113012001968417950729F0282C392CC82EC61A55
S1130130F4CF1F5F133018F403C0172D01C0172D1F
S1130140C201212F30E0260F371FEECFF894FFCFE6
S10D0150FC60DAF266B6BEE0FEF6CB
S9030000FC
